{
  "_format": "hh-sol-artifact-1",
  "contractName": "incube8",
  "sourceName": "contracts/incube8.sol",
  "abi": [
    {
      "inputs": [
        {
          "internalType": "address",
          "name": "_owner",
          "type": "address"
        },
        {
          "internalType": "string",
          "name": "_title",
          "type": "string"
        },
        {
          "internalType": "string",
          "name": "_description",
          "type": "string"
        },
        {
          "internalType": "uint256",
          "name": "_target",
          "type": "uint256"
        },
        {
          "internalType": "uint256",
          "name": "_deadline",
          "type": "uint256"
        },
        {
          "internalType": "string",
          "name": "_image",
          "type": "string"
        }
      ],
      "name": "createPitch",
      "outputs": [
        {
          "internalType": "uint256",
          "name": "",
          "type": "uint256"
        }
      ],
      "stateMutability": "nonpayable",
      "type": "function"
    },
    {
      "inputs": [
        {
          "internalType": "uint256",
          "name": "_id",
          "type": "uint256"
        }
      ],
      "name": "getInvestors",
      "outputs": [
        {
          "internalType": "address[]",
          "name": "",
          "type": "address[]"
        },
        {
          "internalType": "uint256[]",
          "name": "",
          "type": "uint256[]"
        }
      ],
      "stateMutability": "view",
      "type": "function"
    },
    {
      "inputs": [],
      "name": "getPitches",
      "outputs": [
        {
          "components": [
            {
              "internalType": "address",
              "name": "owner",
              "type": "address"
            },
            {
              "internalType": "string",
              "name": "title",
              "type": "string"
            },
            {
              "internalType": "string",
              "name": "description",
              "type": "string"
            },
            {
              "internalType": "uint256",
              "name": "target",
              "type": "uint256"
            },
            {
              "internalType": "uint256",
              "name": "deadline",
              "type": "uint256"
            },
            {
              "internalType": "uint256",
              "name": "amountCollected",
              "type": "uint256"
            },
            {
              "internalType": "string",
              "name": "image",
              "type": "string"
            },
            {
              "internalType": "address[]",
              "name": "investors",
              "type": "address[]"
            },
            {
              "internalType": "uint256[]",
              "name": "investments",
              "type": "uint256[]"
            }
          ],
          "internalType": "struct incube8.Pitch[]",
          "name": "",
          "type": "tuple[]"
        }
      ],
      "stateMutability": "view",
      "type": "function"
    },
    {
      "inputs": [
        {
          "internalType": "uint256",
          "name": "_id",
          "type": "uint256"
        }
      ],
      "name": "invest",
      "outputs": [],
      "stateMutability": "payable",
      "type": "function"
    },
    {
      "inputs": [],
      "name": "numberOfPitches",
      "outputs": [
        {
          "internalType": "uint256",
          "name": "",
          "type": "uint256"
        }
      ],
      "stateMutability": "view",
      "type": "function"
    },
    {
      "inputs": [
        {
          "internalType": "uint256",
          "name": "",
          "type": "uint256"
        }
      ],
      "name": "pitches",
      "outputs": [
        {
          "internalType": "address",
          "name": "owner",
          "type": "address"
        },
        {
          "internalType": "string",
          "name": "title",
          "type": "string"
        },
        {
          "internalType": "string",
          "name": "description",
          "type": "string"
        },
        {
          "internalType": "uint256",
          "name": "target",
          "type": "uint256"
        },
        {
          "internalType": "uint256",
          "name": "deadline",
          "type": "uint256"
        },
        {
          "internalType": "uint256",
          "name": "amountCollected",
          "type": "uint256"
        },
        {
          "internalType": "string",
          "name": "image",
          "type": "string"
        }
      ],
      "stateMutability": "view",
      "type": "function"
    }
  ],
  "bytecode": "0x6080604052600060015534801561001557600080fd5b50610f25806100256000396000f3fe6080604052600436106100555760003560e01c806303ef720d1461005a5780630fca8e95146100835780631139de55146100b657806316ac99d4146100e45780632afcf4801461010457806353292c4b14610119575b600080fd5b34801561006657600080fd5b5061007060015481565b6040519081526020015b60405180910390f35b34801561008f57600080fd5b506100a361009e366004610a13565b61013b565b60405161007a9796959493929190610a79565b3480156100c257600080fd5b506100d66100d1366004610a13565b610318565b60405161007a929190610ae3565b3480156100f057600080fd5b506100706100ff366004610c0a565b6103e7565b610117610112366004610a13565b61050b565b005b34801561012557600080fd5b5061012e6105cd565b60405161007a9190610d37565b600060208190529081526040902080546001820180546001600160a01b03909216929161016790610e44565b80601f016020809104026020016040519081016040528092919081815260200182805461019390610e44565b80156101e05780601f106101b5576101008083540402835291602001916101e0565b820191906000526020600020905b8154815290600101906020018083116101c357829003601f168201915b5050505050908060020180546101f590610e44565b80601f016020809104026020016040519081016040528092919081815260200182805461022190610e44565b801561026e5780601f106102435761010080835404028352916020019161026e565b820191906000526020600020905b81548152906001019060200180831161025157829003601f168201915b50505050509080600301549080600401549080600501549080600601805461029590610e44565b80601f01602080910402602001604051908101604052809291908181526020018280546102c190610e44565b801561030e5780601f106102e35761010080835404028352916020019161030e565b820191906000526020600020905b8154815290600101906020018083116102f157829003601f168201915b5050505050905087565b6000818152602081815260409182902060078101805484518185028101850190955280855260609485949293600801929091849183018282801561038557602002820191906000526020600020905b81546001600160a01b03168152600190910190602001808311610367575b50505050509150808054806020026020016040519081016040528092919081815260200182805480156103d757602002820191906000526020600020905b8154815260200190600101908083116103c3575b5050505050905091509150915091565b60015460009081526020819052604081206004810154421161046c5760405162461bcd60e51b815260206004820152603460248201527f54686520646561646c696e6520666f7220796f75722066756e64696e67206d7560448201527339ba1031329034b7103a343290333aba3ab9329760611b606482015260840160405180910390fd5b80546001600160a01b0319166001600160a01b038916178155865161049a90600183019060208a019061097a565b5085516104b0906002830190602089019061097a565b5060038101859055600481018490556000600582015582516104db906006830190602086019061097a565b50600180549060006104ec83610e8f565b9190505550600180546104ff9190610eaa565b98975050505050505050565b600081815260208181526040808320600781018054600180820183559186528486200180546001600160a01b0319163317905560088201805491820181558552928420349301839055805491519293909290916001600160a01b03169084908381818185875af1925050503d80600081146105a2576040519150601f19603f3d011682016040523d82523d6000602084013e6105a7565b606091505b5050905080156105c7578282600501546105c19190610ec1565b60058301555b50505050565b6060600060015467ffffffffffffffff8111156105ec576105ec610b67565b60405190808252806020026020018201604052801561067557816020015b61066260405180610120016040528060006001600160a01b0316815260200160608152602001606081526020016000815260200160008152602001600081526020016060815260200160608152602001606081525090565b81526020019060019003908161060a5790505b50905060005b60015481101561097457600081815260208181526040918290208251610120810190935280546001600160a01b03168352600181018054919392849290840191906106c590610e44565b80601f01602080910402602001604051908101604052809291908181526020018280546106f190610e44565b801561073e5780601f106107135761010080835404028352916020019161073e565b820191906000526020600020905b81548152906001019060200180831161072157829003601f168201915b5050505050815260200160028201805461075790610e44565b80601f016020809104026020016040519081016040528092919081815260200182805461078390610e44565b80156107d05780601f106107a5576101008083540402835291602001916107d0565b820191906000526020600020905b8154815290600101906020018083116107b357829003601f168201915b5050505050815260200160038201548152602001600482015481526020016005820154815260200160068201805461080790610e44565b80601f016020809104026020016040519081016040528092919081815260200182805461083390610e44565b80156108805780601f1061085557610100808354040283529160200191610880565b820191906000526020600020905b81548152906001019060200180831161086357829003601f168201915b50505050508152602001600782018054806020026020016040519081016040528092919081815260200182805480156108e257602002820191906000526020600020905b81546001600160a01b031681526001909101906020018083116108c4575b505050505081526020016008820180548060200260200160405190810160405280929190818152602001828054801561093a57602002820191906000526020600020905b815481526020019060010190808311610926575b50505050508152505083838151811061095557610955610ed9565b602002602001018190525050808061096c90610e8f565b91505061067b565b50919050565b82805461098690610e44565b90600052602060002090601f0160209004810192826109a857600085556109ee565b82601f106109c157805160ff19168380011785556109ee565b828001600101855582156109ee579182015b828111156109ee5782518255916020019190600101906109d3565b506109fa9291506109fe565b5090565b5b808211156109fa57600081556001016109ff565b600060208284031215610a2557600080fd5b5035919050565b6000815180845260005b81811015610a5257602081850181015186830182015201610a36565b81811115610a64576000602083870101525b50601f01601f19169290920160200192915050565b6001600160a01b038816815260e060208201819052600090610a9d90830189610a2c565b8281036040840152610aaf8189610a2c565b90508660608401528560808401528460a084015282810360c0840152610ad58185610a2c565b9a9950505050505050505050565b604080825283519082018190526000906020906060840190828701845b82811015610b255781516001600160a01b031684529284019290840190600101610b00565b5050508381038285015284518082528583019183019060005b81811015610b5a57835183529284019291840191600101610b3e565b5090979650505050505050565b634e487b7160e01b600052604160045260246000fd5b600082601f830112610b8e57600080fd5b813567ffffffffffffffff80821115610ba957610ba9610b67565b604051601f8301601f19908116603f01168101908282118183101715610bd157610bd1610b67565b81604052838152866020858801011115610bea57600080fd5b836020870160208301376000602085830101528094505050505092915050565b60008060008060008060c08789031215610c2357600080fd5b86356001600160a01b0381168114610c3a57600080fd5b9550602087013567ffffffffffffffff80821115610c5757600080fd5b610c638a838b01610b7d565b96506040890135915080821115610c7957600080fd5b610c858a838b01610b7d565b9550606089013594506080890135935060a0890135915080821115610ca957600080fd5b50610cb689828a01610b7d565b9150509295509295509295565b600081518084526020808501945080840160005b83811015610cfc5781516001600160a01b031687529582019590820190600101610cd7565b509495945050505050565b600081518084526020808501945080840160005b83811015610cfc57815187529582019590820190600101610d1b565b60006020808301818452808551808352604092508286019150828160051b87010184880160005b83811015610e3657888303603f19018552815180516001600160a01b0316845261012088820151818a870152610d9682870182610a2c565b9150508782015185820389870152610dae8282610a2c565b606084810151908801526080808501519088015260a0808501519088015260c080850151888303828a01529193509150610de88382610a2c565b9250505060e08083015186830382880152610e038382610cc3565b925050506101008083015192508582038187015250610e228183610d07565b968901969450505090860190600101610d5e565b509098975050505050505050565b600181811c90821680610e5857607f821691505b6020821081141561097457634e487b7160e01b600052602260045260246000fd5b634e487b7160e01b600052601160045260246000fd5b6000600019821415610ea357610ea3610e79565b5060010190565b600082821015610ebc57610ebc610e79565b500390565b60008219821115610ed457610ed4610e79565b500190565b634e487b7160e01b600052603260045260246000fdfea2646970667358221220172c474f2e0f6f8b64be8d95f4a3570dd3c17da437be36a12473f9f0bd96d38564736f6c63430008090033",
  "linkReferences": {},
  "deployedLinkReferences": {}
}